{
  "contractName": "QVVoting",
  "abi": [
    {
      "inputs": [],
      "payable": false,
      "stateMutability": "nonpayable",
      "type": "constructor"
    },
    {
      "anonymous": false,
      "inputs": [
        {
          "indexed": true,
          "internalType": "address",
          "name": "account",
          "type": "address"
        }
      ],
      "name": "MinterAdded",
      "type": "event"
    },
    {
      "anonymous": false,
      "inputs": [
        {
          "indexed": true,
          "internalType": "address",
          "name": "account",
          "type": "address"
        }
      ],
      "name": "MinterRemoved",
      "type": "event"
    },
    {
      "anonymous": false,
      "inputs": [
        {
          "indexed": true,
          "internalType": "address",
          "name": "previousOwner",
          "type": "address"
        },
        {
          "indexed": true,
          "internalType": "address",
          "name": "newOwner",
          "type": "address"
        }
      ],
      "name": "OwnershipTransferred",
      "type": "event"
    },
    {
      "anonymous": false,
      "inputs": [
        {
          "indexed": false,
          "internalType": "address",
          "name": "creator",
          "type": "address"
        },
        {
          "indexed": false,
          "internalType": "uint256",
          "name": "ProposalID",
          "type": "uint256"
        },
        {
          "indexed": false,
          "internalType": "string",
          "name": "description",
          "type": "string"
        },
        {
          "indexed": false,
          "internalType": "uint256",
          "name": "votingTimeInHours",
          "type": "uint256"
        }
      ],
      "name": "ProposalCreated",
      "type": "event"
    },
    {
      "anonymous": false,
      "inputs": [
        {
          "indexed": false,
          "internalType": "address",
          "name": "voter",
          "type": "address"
        },
        {
          "indexed": false,
          "internalType": "uint256",
          "name": "ProposalID",
          "type": "uint256"
        },
        {
          "indexed": false,
          "internalType": "uint256",
          "name": "weight",
          "type": "uint256"
        }
      ],
      "name": "VoteCasted",
      "type": "event"
    },
    {
      "constant": true,
      "inputs": [],
      "name": "ProposalCount",
      "outputs": [
        {
          "internalType": "uint256",
          "name": "",
          "type": "uint256"
        }
      ],
      "payable": false,
      "stateMutability": "view",
      "type": "function"
    },
    {
      "constant": true,
      "inputs": [
        {
          "internalType": "uint256",
          "name": "",
          "type": "uint256"
        }
      ],
      "name": "Proposals",
      "outputs": [
        {
          "internalType": "address",
          "name": "creator",
          "type": "address"
        },
        {
          "internalType": "enum QVVoting.ProposalStatus",
          "name": "status",
          "type": "uint8"
        },
        {
          "internalType": "uint256",
          "name": "yesVotes",
          "type": "uint256"
        },
        {
          "internalType": "uint256",
          "name": "noVotes",
          "type": "uint256"
        },
        {
          "internalType": "string",
          "name": "description",
          "type": "string"
        },
        {
          "internalType": "uint256",
          "name": "expirationTime",
          "type": "uint256"
        }
      ],
      "payable": false,
      "stateMutability": "view",
      "type": "function"
    },
    {
      "constant": false,
      "inputs": [
        {
          "internalType": "address",
          "name": "account",
          "type": "address"
        }
      ],
      "name": "addMinter",
      "outputs": [],
      "payable": false,
      "stateMutability": "nonpayable",
      "type": "function"
    },
    {
      "constant": true,
      "inputs": [
        {
          "internalType": "address",
          "name": "account",
          "type": "address"
        }
      ],
      "name": "isMinter",
      "outputs": [
        {
          "internalType": "bool",
          "name": "",
          "type": "bool"
        }
      ],
      "payable": false,
      "stateMutability": "view",
      "type": "function"
    },
    {
      "constant": true,
      "inputs": [],
      "name": "isOwner",
      "outputs": [
        {
          "internalType": "bool",
          "name": "",
          "type": "bool"
        }
      ],
      "payable": false,
      "stateMutability": "view",
      "type": "function"
    },
    {
      "constant": true,
      "inputs": [],
      "name": "name",
      "outputs": [
        {
          "internalType": "string",
          "name": "",
          "type": "string"
        }
      ],
      "payable": false,
      "stateMutability": "view",
      "type": "function"
    },
    {
      "constant": true,
      "inputs": [],
      "name": "owner",
      "outputs": [
        {
          "internalType": "address",
          "name": "",
          "type": "address"
        }
      ],
      "payable": false,
      "stateMutability": "view",
      "type": "function"
    },
    {
      "constant": false,
      "inputs": [],
      "name": "renounceMinter",
      "outputs": [],
      "payable": false,
      "stateMutability": "nonpayable",
      "type": "function"
    },
    {
      "constant": false,
      "inputs": [],
      "name": "renounceOwnership",
      "outputs": [],
      "payable": false,
      "stateMutability": "nonpayable",
      "type": "function"
    },
    {
      "constant": true,
      "inputs": [],
      "name": "symbol",
      "outputs": [
        {
          "internalType": "string",
          "name": "",
          "type": "string"
        }
      ],
      "payable": false,
      "stateMutability": "view",
      "type": "function"
    },
    {
      "constant": false,
      "inputs": [
        {
          "internalType": "address",
          "name": "newOwner",
          "type": "address"
        }
      ],
      "name": "transferOwnership",
      "outputs": [],
      "payable": false,
      "stateMutability": "nonpayable",
      "type": "function"
    },
    {
      "constant": false,
      "inputs": [
        {
          "internalType": "string",
          "name": "_description",
          "type": "string"
        },
        {
          "internalType": "uint256",
          "name": "_voteExpirationTime",
          "type": "uint256"
        }
      ],
      "name": "createProposal",
      "outputs": [
        {
          "internalType": "uint256",
          "name": "",
          "type": "uint256"
        }
      ],
      "payable": false,
      "stateMutability": "nonpayable",
      "type": "function"
    },
    {
      "constant": false,
      "inputs": [
        {
          "internalType": "uint256",
          "name": "_ProposalID",
          "type": "uint256"
        }
      ],
      "name": "setProposalToTally",
      "outputs": [],
      "payable": false,
      "stateMutability": "nonpayable",
      "type": "function"
    },
    {
      "constant": false,
      "inputs": [
        {
          "internalType": "uint256",
          "name": "_ProposalID",
          "type": "uint256"
        }
      ],
      "name": "setProposalToEnded",
      "outputs": [],
      "payable": false,
      "stateMutability": "nonpayable",
      "type": "function"
    },
    {
      "constant": true,
      "inputs": [
        {
          "internalType": "uint256",
          "name": "_ProposalID",
          "type": "uint256"
        }
      ],
      "name": "getProposalStatus",
      "outputs": [
        {
          "internalType": "enum QVVoting.ProposalStatus",
          "name": "",
          "type": "uint8"
        }
      ],
      "payable": false,
      "stateMutability": "view",
      "type": "function"
    },
    {
      "constant": true,
      "inputs": [
        {
          "internalType": "uint256",
          "name": "_ProposalID",
          "type": "uint256"
        }
      ],
      "name": "getProposalExpirationTime",
      "outputs": [
        {
          "internalType": "uint256",
          "name": "",
          "type": "uint256"
        }
      ],
      "payable": false,
      "stateMutability": "view",
      "type": "function"
    },
    {
      "constant": true,
      "inputs": [
        {
          "internalType": "uint256",
          "name": "_ProposalID",
          "type": "uint256"
        }
      ],
      "name": "countVotes",
      "outputs": [
        {
          "internalType": "uint256",
          "name": "",
          "type": "uint256"
        },
        {
          "internalType": "uint256",
          "name": "",
          "type": "uint256"
        }
      ],
      "payable": false,
      "stateMutability": "view",
      "type": "function"
    },
    {
      "constant": false,
      "inputs": [
        {
          "internalType": "uint256",
          "name": "_ProposalID",
          "type": "uint256"
        },
        {
          "internalType": "uint256",
          "name": "numTokens",
          "type": "uint256"
        },
        {
          "internalType": "bool",
          "name": "_vote",
          "type": "bool"
        }
      ],
      "name": "castVote",
      "outputs": [],
      "payable": false,
      "stateMutability": "nonpayable",
      "type": "function"
    },
    {
      "constant": false,
      "inputs": [
        {
          "internalType": "address",
          "name": "account",
          "type": "address"
        },
        {
          "internalType": "uint256",
          "name": "amount",
          "type": "uint256"
        }
      ],
      "name": "mint",
      "outputs": [],
      "payable": false,
      "stateMutability": "nonpayable",
      "type": "function"
    },
    {
      "constant": true,
      "inputs": [
        {
          "internalType": "address",
          "name": "account",
          "type": "address"
        }
      ],
      "name": "balanceOf",
      "outputs": [
        {
          "internalType": "uint256",
          "name": "",
          "type": "uint256"
        }
      ],
      "payable": false,
      "stateMutability": "view",
      "type": "function"
    }
  ],
  "bytecode": "0x60806040523480156200001157600080fd5b50336000806101000a81548173ffffffffffffffffffffffffffffffffffffffff021916908373ffffffffffffffffffffffffffffffffffffffff1602179055506000809054906101000a900473ffffffffffffffffffffffffffffffffffffffff1673ffffffffffffffffffffffffffffffffffffffff16600073ffffffffffffffffffffffffffffffffffffffff167f8be0079c531659141344cd1fd0a4f28419497f9722a3daafe3b4186f6b6457e060405160405180910390a3620000df336200018160201b60201c565b6040518060400160405280600381526020017f5156560000000000000000000000000000000000000000000000000000000000815250600390805190602001906200012c929190620003a6565b506040518060400160405280600981526020017f515620566f74696e670000000000000000000000000000000000000000000000815250600490805190602001906200017a929190620003a6565b5062000455565b6200019c816001620001e260201b620022421790919060201c565b8073ffffffffffffffffffffffffffffffffffffffff167f6ae172837ea30b801fbfcdd4108aa1d5bf8ff775444fd70256b44e6bf3dfc3f660405160405180910390a250565b620001f48282620002c660201b60201c565b1562000268576040517f08c379a000000000000000000000000000000000000000000000000000000000815260040180806020018281038252601f8152602001807f526f6c65733a206163636f756e7420616c72656164792068617320726f6c650081525060200191505060405180910390fd5b60018260000160008373ffffffffffffffffffffffffffffffffffffffff1673ffffffffffffffffffffffffffffffffffffffff16815260200190815260200160002060006101000a81548160ff0219169083151502179055505050565b60008073ffffffffffffffffffffffffffffffffffffffff168273ffffffffffffffffffffffffffffffffffffffff1614156200034f576040517f08c379a0000000000000000000000000000000000000000000000000000000008152600401808060200182810382526022815260200180620029ff6022913960400191505060405180910390fd5b8260000160008373ffffffffffffffffffffffffffffffffffffffff1673ffffffffffffffffffffffffffffffffffffffff16815260200190815260200160002060009054906101000a900460ff16905092915050565b828054600181600116156101000203166002900490600052602060002090601f016020900481019282601f10620003e957805160ff19168380011785556200041a565b828001600101855582156200041a579182015b8281111562000419578251825591602001919060010190620003fc565b5b5090506200042991906200042d565b5090565b6200045291905b808211156200044e57600081600090555060010162000434565b5090565b90565b61259a80620004656000396000f3fe608060405234801561001057600080fd5b506004361061012c5760003560e01c80638da5cb5b116100ad578063aa271e1a11610071578063aa271e1a1461056f578063be747c1c146105cb578063d1dbe7d8146105e9578063f2fde38b146106ed578063f9000ba8146107315761012c565b80638da5cb5b146104325780638f32d59b1461047c57806395d89b411461049e578063983b2d561461052157806398650275146105655761012c565b806340c10f19116100f457806340c10f19146103125780634c3bd9d6146103605780634d5f9eba1461038e57806370a08231146103d0578063715018a6146104285761012c565b806306fdde03146101315780631840f0ca146101b45780632d5e9d29146101fd57806335facf781461022b578063401853b7146102c2575b600080fd5b610139610775565b6040518080602001828103825283818151815260200191508051906020019080838360005b8381101561017957808201518184015260208101905061015e565b50505050905090810190601f1680156101a65780820380516001836020036101000a031916815260200191505b509250505060405180910390f35b6101e0600480360360208110156101ca57600080fd5b8101908080359060200190929190505050610813565b604051808381526020018281526020019250505060405180910390f35b6102296004803603602081101561021357600080fd5b81019080803590602001909291905050506109e5565b005b6102ac6004803603604081101561024157600080fd5b810190808035906020019064010000000081111561025e57600080fd5b82018360208201111561027057600080fd5b8035906020019184600183028401116401000000008311171561029257600080fd5b909192939192939080359060200190929190505050610c4d565b6040518082815260200191505060405180910390f35b6102ee600480360360208110156102d857600080fd5b8101908080359060200190929190505050610eae565b604051808260028111156102fe57fe5b60ff16815260200191505060405180910390f35b61035e6004803603604081101561032857600080fd5b81019080803573ffffffffffffffffffffffffffffffffffffffff16906020019092919080359060200190929190505050610f61565b005b61038c6004803603602081101561037657600080fd5b8101908080359060200190929190505050611132565b005b6103ba600480360360208110156103a457600080fd5b810190808035906020019092919050505061139a565b6040518082815260200191505060405180910390f35b610412600480360360208110156103e657600080fd5b81019080803573ffffffffffffffffffffffffffffffffffffffff169060200190929190505050611440565b6040518082815260200191505060405180910390f35b610430611489565b005b61043a6115c2565b604051808273ffffffffffffffffffffffffffffffffffffffff1673ffffffffffffffffffffffffffffffffffffffff16815260200191505060405180910390f35b6104846115eb565b604051808215151515815260200191505060405180910390f35b6104a6611642565b6040518080602001828103825283818151815260200191508051906020019080838360005b838110156104e65780820151818401526020810190506104cb565b50505050905090810190601f1680156105135780820380516001836020036101000a031916815260200191505b509250505060405180910390f35b6105636004803603602081101561053757600080fd5b81019080803573ffffffffffffffffffffffffffffffffffffffff1690602001909291905050506116e0565b005b61056d61174a565b005b6105b16004803603602081101561058557600080fd5b81019080803573ffffffffffffffffffffffffffffffffffffffff169060200190929190505050611755565b604051808215151515815260200191505060405180910390f35b6105d3611772565b6040518082815260200191505060405180910390f35b610615600480360360208110156105ff57600080fd5b8101908080359060200190929190505050611778565b604051808773ffffffffffffffffffffffffffffffffffffffff1673ffffffffffffffffffffffffffffffffffffffff16815260200186600281111561065757fe5b60ff16815260200185815260200184815260200180602001838152602001828103825284818151815260200191508051906020019080838360005b838110156106ad578082015181840152602081019050610692565b50505050905090810190601f1680156106da5780820380516001836020036101000a031916815260200191505b5097505050505050505060405180910390f35b61072f6004803603602081101561070357600080fd5b81019080803573ffffffffffffffffffffffffffffffffffffffff169060200190929190505050611879565b005b6107736004803603606081101561074757600080fd5b8101908080359060200190929190803590602001909291908035151590602001909291905050506118ff565b005b60048054600181600116156101000203166002900480601f01602080910402602001604051908101604052809291908181526020018280546001816001161561010002031660029004801561080b5780601f106107e05761010080835404028352916020019161080b565b820191906000526020600020905b8154815290600101906020018083116107ee57829003601f168201915b505050505081565b600080600080905060008090506060600660008781526020019081526020016000206004018054806020026020016040519081016040528092919081815260200182805480156108b857602002820191906000526020600020905b8160009054906101000a900473ffffffffffffffffffffffffffffffffffffffff1673ffffffffffffffffffffffffffffffffffffffff168152602001906001019080831161086e575b5050505050905060008090505b81518110156109d65760008282815181106108dc57fe5b602002602001015190506000600660008a815260200190815260200160002060060160008373ffffffffffffffffffffffffffffffffffffffff1673ffffffffffffffffffffffffffffffffffffffff16815260200190815260200160002060000160019054906101000a900460ff1690506000600660008b815260200190815260200160002060060160008473ffffffffffffffffffffffffffffffffffffffff1673ffffffffffffffffffffffffffffffffffffffff1681526020019081526020016000206001015490506001151582151514156109c05780870196506109c6565b80860195505b50505080806001019150506108c5565b50828294509450505050915091565b806000811180156109f857506007548111155b610a6a576040517f08c379a00000000000000000000000000000000000000000000000000000000081526004018080602001828103825260178152602001807f4e6f7420612076616c69642050726f706f73616c20496400000000000000000081525060200191505060405180910390fd5b610a726115eb565b610ae4576040517f08c379a00000000000000000000000000000000000000000000000000000000081526004018080602001828103825260208152602001807f4f776e61626c653a2063616c6c6572206973206e6f7420746865206f776e657281525060200191505060405180910390fd5b60006002811115610af157fe5b6006600084815260200190815260200160002060000160149054906101000a900460ff166002811115610b2057fe5b14610b93576040517f08c379a00000000000000000000000000000000000000000000000000000000081526004018080602001828103825260178152602001807f566f7465206973206e6f7420696e2070726f677265737300000000000000000081525060200191505060405180910390fd5b610b9c8261139a565b421015610c11576040517f08c379a000000000000000000000000000000000000000000000000000000000815260040180806020018281038252601d8152602001807f766f74696e6720706572696f6420686173206e6f74206578706972656400000081525060200191505060405180910390fd5b60016006600084815260200190815260200160002060000160146101000a81548160ff02191690836002811115610c4457fe5b02179055505050565b6000610c576115eb565b610cc9576040517f08c379a00000000000000000000000000000000000000000000000000000000081526004018080602001828103825260208152602001807f4f776e61626c653a2063616c6c6572206973206e6f7420746865206f776e657281525060200191505060405180910390fd5b60008211610d3f576040517f08c379a000000000000000000000000000000000000000000000000000000000815260040180806020018281038252601d8152602001807f54686520766f74696e6720706572696f642063616e6e6f74206265203000000081525060200191505060405180910390fd5b60076000815480929190600101919050555060006006600060075481526020019081526020016000209050338160000160006101000a81548173ffffffffffffffffffffffffffffffffffffffff021916908373ffffffffffffffffffffffffffffffffffffffff16021790555060008160000160146101000a81548160ff02191690836002811115610dce57fe5b0217905550600183603c0202420181600501819055508484826003019190610df79291906123da565b507f781e930fda5896dda55b0c20f29c285b9bedfb112a3a6456d12c63b278537ae033600754878787604051808673ffffffffffffffffffffffffffffffffffffffff1673ffffffffffffffffffffffffffffffffffffffff168152602001858152602001806020018381526020018281038252858582818152602001925080828437600081840152601f19601f820116905080830192505050965050505050505060405180910390a16007549150509392505050565b600081600081118015610ec357506007548111155b610f35576040517f08c379a00000000000000000000000000000000000000000000000000000000081526004018080602001828103825260178152602001807f4e6f7420612076616c69642050726f706f73616c20496400000000000000000081525060200191505060405180910390fd5b6006600084815260200190815260200160002060000160149054906101000a900460ff16915050919050565b610f696115eb565b610fdb576040517f08c379a00000000000000000000000000000000000000000000000000000000081526004018080602001828103825260208152602001807f4f776e61626c653a2063616c6c6572206973206e6f7420746865206f776e657281525060200191505060405180910390fd5b600073ffffffffffffffffffffffffffffffffffffffff168273ffffffffffffffffffffffffffffffffffffffff16141561107e576040517f08c379a00000000000000000000000000000000000000000000000000000000081526004018080602001828103825260198152602001807f206d696e7420746f20746865207a65726f20616464726573730000000000000081525060200191505060405180910390fd5b61109381600254611d2290919063ffffffff16565b6002819055506110eb81600560008573ffffffffffffffffffffffffffffffffffffffff1673ffffffffffffffffffffffffffffffffffffffff16815260200190815260200160002054611d2290919063ffffffff16565b600560008473ffffffffffffffffffffffffffffffffffffffff1673ffffffffffffffffffffffffffffffffffffffff168152602001908152602001600020819055505050565b8060008111801561114557506007548111155b6111b7576040517f08c379a00000000000000000000000000000000000000000000000000000000081526004018080602001828103825260178152602001807f4e6f7420612076616c69642050726f706f73616c20496400000000000000000081525060200191505060405180910390fd5b6111bf6115eb565b611231576040517f08c379a00000000000000000000000000000000000000000000000000000000081526004018080602001828103825260208152602001807f4f776e61626c653a2063616c6c6572206973206e6f7420746865206f776e657281525060200191505060405180910390fd5b6001600281111561123e57fe5b6006600084815260200190815260200160002060000160149054906101000a900460ff16600281111561126d57fe5b146112e0576040517f08c379a000000000000000000000000000000000000000000000000000000000815260040180806020018281038252601b8152602001807f50726f706f73616c2073686f756c6420626520696e2074616c6c79000000000081525060200191505060405180910390fd5b6112e98261139a565b42101561135e576040517f08c379a000000000000000000000000000000000000000000000000000000000815260040180806020018281038252601d8152602001807f766f74696e6720706572696f6420686173206e6f74206578706972656400000081525060200191505060405180910390fd5b60026006600084815260200190815260200160002060000160146101000a81548160ff0219169083600281111561139157fe5b02179055505050565b6000816000811180156113af57506007548111155b611421576040517f08c379a00000000000000000000000000000000000000000000000000000000081526004018080602001828103825260178152602001807f4e6f7420612076616c69642050726f706f73616c20496400000000000000000081525060200191505060405180910390fd5b6006600084815260200190815260200160002060050154915050919050565b6000600560008373ffffffffffffffffffffffffffffffffffffffff1673ffffffffffffffffffffffffffffffffffffffff168152602001908152602001600020549050919050565b6114916115eb565b611503576040517f08c379a00000000000000000000000000000000000000000000000000000000081526004018080602001828103825260208152602001807f4f776e61626c653a2063616c6c6572206973206e6f7420746865206f776e657281525060200191505060405180910390fd5b600073ffffffffffffffffffffffffffffffffffffffff166000809054906101000a900473ffffffffffffffffffffffffffffffffffffffff1673ffffffffffffffffffffffffffffffffffffffff167f8be0079c531659141344cd1fd0a4f28419497f9722a3daafe3b4186f6b6457e060405160405180910390a360008060006101000a81548173ffffffffffffffffffffffffffffffffffffffff021916908373ffffffffffffffffffffffffffffffffffffffff160217905550565b60008060009054906101000a900473ffffffffffffffffffffffffffffffffffffffff16905090565b60008060009054906101000a900473ffffffffffffffffffffffffffffffffffffffff1673ffffffffffffffffffffffffffffffffffffffff163373ffffffffffffffffffffffffffffffffffffffff1614905090565b60038054600181600116156101000203166002900480601f0160208091040260200160405190810160405280929190818152602001828054600181600116156101000203166002900480156116d85780601f106116ad576101008083540402835291602001916116d8565b820191906000526020600020905b8154815290600101906020018083116116bb57829003601f168201915b505050505081565b6116e933611755565b61173e576040517f08c379a00000000000000000000000000000000000000000000000000000000081526004018080602001828103825260308152602001806124a66030913960400191505060405180910390fd5b61174781611daa565b50565b61175333611e04565b565b600061176b826001611e5e90919063ffffffff16565b9050919050565b60075481565b60066020528060005260406000206000915090508060000160009054906101000a900473ffffffffffffffffffffffffffffffffffffffff16908060000160149054906101000a900460ff1690806001015490806002015490806003018054600181600116156101000203166002900480601f0160208091040260200160405190810160405280929190818152602001828054600181600116156101000203166002900480156118695780601f1061183e57610100808354040283529160200191611869565b820191906000526020600020905b81548152906001019060200180831161184c57829003601f168201915b5050505050908060050154905086565b6118816115eb565b6118f3576040517f08c379a00000000000000000000000000000000000000000000000000000000081526004018080602001828103825260208152602001807f4f776e61626c653a2063616c6c6572206973206e6f7420746865206f776e657281525060200191505060405180910390fd5b6118fc81611f3c565b50565b8260008111801561191257506007548111155b611984576040517f08c379a00000000000000000000000000000000000000000000000000000000081526004018080602001828103825260178152602001807f4e6f7420612076616c69642050726f706f73616c20496400000000000000000081525060200191505060405180910390fd5b6000600281111561199157fe5b61199a85610eae565b60028111156119a557fe5b14611a18576040517f08c379a00000000000000000000000000000000000000000000000000000000081526004018080602001828103825260158152602001807f70726f706f73616c2068617320657870697265642e000000000000000000000081525060200191505060405180910390fd5b611a228433612080565b15611a78576040517f08c379a00000000000000000000000000000000000000000000000000000000081526004018080602001828103825260238152602001806125436023913960400191505060405180910390fd5b42611a828561139a565b11611ad8576040517f08c379a000000000000000000000000000000000000000000000000000000000815260040180806020018281038252602a815260200180612519602a913960400191505060405180910390fd5b611b2a83600560003373ffffffffffffffffffffffffffffffffffffffff1673ffffffffffffffffffffffffffffffffffffffff1681526020019081526020016000205461217490919063ffffffff16565b600560003373ffffffffffffffffffffffffffffffffffffffff1673ffffffffffffffffffffffffffffffffffffffff168152602001908152602001600020819055506000611b78846121fd565b9050600060066000878152602001908152602001600020905060405180606001604052806001151581526020018515158152602001838152508160060160003373ffffffffffffffffffffffffffffffffffffffff1673ffffffffffffffffffffffffffffffffffffffff16815260200190815260200160002060008201518160000160006101000a81548160ff02191690831515021790555060208201518160000160016101000a81548160ff02191690831515021790555060408201518160010155905050806004013390806001815401808255809150509060018203906000526020600020016000909192909190916101000a81548173ffffffffffffffffffffffffffffffffffffffff021916908373ffffffffffffffffffffffffffffffffffffffff160217905550507fcb87df07b1c304492bd875a5c8b98672eca500939412809ea229afef1d745188338784604051808473ffffffffffffffffffffffffffffffffffffffff1673ffffffffffffffffffffffffffffffffffffffff168152602001838152602001828152602001935050505060405180910390a1505050505050565b600080828401905083811015611da0576040517f08c379a000000000000000000000000000000000000000000000000000000000815260040180806020018281038252601b8152602001807f536166654d6174683a206164646974696f6e206f766572666c6f77000000000081525060200191505060405180910390fd5b8091505092915050565b611dbe81600161224290919063ffffffff16565b8073ffffffffffffffffffffffffffffffffffffffff167f6ae172837ea30b801fbfcdd4108aa1d5bf8ff775444fd70256b44e6bf3dfc3f660405160405180910390a250565b611e1881600161231d90919063ffffffff16565b8073ffffffffffffffffffffffffffffffffffffffff167fe94479a9f7e1952cc78f2d6baab678adc1b772d936c6583def489e524cb6669260405160405180910390a250565b60008073ffffffffffffffffffffffffffffffffffffffff168273ffffffffffffffffffffffffffffffffffffffff161415611ee5576040517f08c379a00000000000000000000000000000000000000000000000000000000081526004018080602001828103825260228152602001806124f76022913960400191505060405180910390fd5b8260000160008373ffffffffffffffffffffffffffffffffffffffff1673ffffffffffffffffffffffffffffffffffffffff16815260200190815260200160002060009054906101000a900460ff16905092915050565b600073ffffffffffffffffffffffffffffffffffffffff168173ffffffffffffffffffffffffffffffffffffffff161415611fc2576040517f08c379a00000000000000000000000000000000000000000000000000000000081526004018080602001828103825260268152602001806124806026913960400191505060405180910390fd5b8073ffffffffffffffffffffffffffffffffffffffff166000809054906101000a900473ffffffffffffffffffffffffffffffffffffffff1673ffffffffffffffffffffffffffffffffffffffff167f8be0079c531659141344cd1fd0a4f28419497f9722a3daafe3b4186f6b6457e060405160405180910390a3806000806101000a81548173ffffffffffffffffffffffffffffffffffffffff021916908373ffffffffffffffffffffffffffffffffffffffff16021790555050565b60008260008111801561209557506007548111155b612107576040517f08c379a00000000000000000000000000000000000000000000000000000000081526004018080602001828103825260178152602001807f4e6f7420612076616c69642050726f706f73616c20496400000000000000000081525060200191505060405180910390fd5b6006600085815260200190815260200160002060060160008473ffffffffffffffffffffffffffffffffffffffff1673ffffffffffffffffffffffffffffffffffffffff16815260200190815260200160002060000160009054906101000a900460ff1691505092915050565b6000828211156121ec576040517f08c379a000000000000000000000000000000000000000000000000000000000815260040180806020018281038252601e8152602001807f536166654d6174683a207375627472616374696f6e206f766572666c6f77000081525060200191505060405180910390fd5b600082840390508091505092915050565b6000806002600184018161220d57fe5b0490508291505b8181101561223c5780915060028182858161222b57fe5b04018161223457fe5b049050612214565b50919050565b61224c8282611e5e565b156122bf576040517f08c379a000000000000000000000000000000000000000000000000000000000815260040180806020018281038252601f8152602001807f526f6c65733a206163636f756e7420616c72656164792068617320726f6c650081525060200191505060405180910390fd5b60018260000160008373ffffffffffffffffffffffffffffffffffffffff1673ffffffffffffffffffffffffffffffffffffffff16815260200190815260200160002060006101000a81548160ff0219169083151502179055505050565b6123278282611e5e565b61237c576040517f08c379a00000000000000000000000000000000000000000000000000000000081526004018080602001828103825260218152602001806124d66021913960400191505060405180910390fd5b60008260000160008373ffffffffffffffffffffffffffffffffffffffff1673ffffffffffffffffffffffffffffffffffffffff16815260200190815260200160002060006101000a81548160ff0219169083151502179055505050565b828054600181600116156101000203166002900490600052602060002090601f016020900481019282601f1061241b57803560ff1916838001178555612449565b82800160010185558215612449579182015b8281111561244857823582559160200191906001019061242d565b5b509050612456919061245a565b5090565b61247c91905b80821115612478576000816000905550600101612460565b5090565b9056fe4f776e61626c653a206e6577206f776e657220697320746865207a65726f20616464726573734d696e746572526f6c653a2063616c6c657220646f6573206e6f74206861766520746865204d696e74657220726f6c65526f6c65733a206163636f756e7420646f6573206e6f74206861766520726f6c65526f6c65733a206163636f756e7420697320746865207a65726f2061646472657373666f7220746869732070726f706f73616c2c2074686520766f74696e672074696d6520657870697265647573657220616c726561647920766f746564206f6e20746869732070726f706f73616ca265627a7a723158202d4c1228bd61d0ba3571804d03e63474b1601086fabe80cefa6508dd380a03d164736f6c63430005100032526f6c65733a206163636f756e7420697320746865207a65726f2061646472657373",
  "source": "pragma solidity >=0.4.25 <0.6.0;\n\nimport \"openzeppelin-solidity/contracts/math/SafeMath.sol\";\nimport \"openzeppelin-solidity/contracts/ownership/Ownable.sol\";\nimport \"openzeppelin-solidity/contracts/access/roles/MinterRole.sol\";\n\n/**\n * @title QVVoting\n * @dev the manager for proposals / votes\n */\ncontract QVVoting is Ownable, MinterRole {\n    using SafeMath for uint256;\n\n    uint256 private _totalSupply;\n    string public symbol;\n    string public name;\n    mapping(address => uint256) private _balances;\n\n    event VoteCasted(address voter, uint ProposalID, uint256 weight);\n\n    event ProposalCreated(\n        address creator,\n        uint256 ProposalID,\n        string description,\n        uint votingTimeInHours\n    );\n\n    enum ProposalStatus {IN_PROGRESS, TALLY, ENDED}\n\n    struct Proposal {\n        address creator;\n        ProposalStatus status;\n        uint256 yesVotes;\n        uint256 noVotes;\n        string description;\n        address[] voters;\n        uint expirationTime;\n        mapping(address => Voter) voterInfo;\n    }\n\n    struct Voter {\n        bool hasVoted;\n        bool vote;\n        uint256 weight;\n    }\n\n    mapping(uint256 => Proposal) public Proposals;\n    uint public ProposalCount;\n\n    constructor() public {\n        symbol = \"QVV\";\n        name = \"QV Voting\";\n    }\n\n    /**\n    * @dev Creates a new proposal.\n    * @param _description the text of the proposal\n    * @param _voteExpirationTime expiration time in minutes\n    */\n    function createProposal(\n        string calldata _description,\n        uint _voteExpirationTime\n    ) external onlyOwner returns (uint) {\n        require(_voteExpirationTime > 0, \"The voting period cannot be 0\");\n        ProposalCount++;\n\n        Proposal storage curProposal = Proposals[ProposalCount];\n        curProposal.creator = msg.sender;\n        curProposal.status = ProposalStatus.IN_PROGRESS;\n        curProposal.expirationTime = now + 60 * _voteExpirationTime * 1 seconds;\n        curProposal.description = _description;\n\n        emit ProposalCreated(\n            msg.sender,\n            ProposalCount,\n            _description,\n            _voteExpirationTime\n        );\n        return ProposalCount;\n    }\n\n    /**\n    * @dev sets a proposal to TALLY.\n    * @param _ProposalID the proposal id\n    */\n    function setProposalToTally(uint _ProposalID)\n        external\n        validProposal(_ProposalID)\n        onlyOwner\n    {\n        require(\n            Proposals[_ProposalID].status == ProposalStatus.IN_PROGRESS,\n            \"Vote is not in progress\"\n        );\n        require(\n            now >= getProposalExpirationTime(_ProposalID),\n            \"voting period has not expired\"\n        );\n        Proposals[_ProposalID].status = ProposalStatus.TALLY;\n    }\n\n    /**\n    * @dev sets a proposal to ENDED.\n    * @param _ProposalID the proposal id\n    */\n    function setProposalToEnded(uint _ProposalID)\n        external\n        validProposal(_ProposalID)\n        onlyOwner\n    {\n        require(\n            Proposals[_ProposalID].status == ProposalStatus.TALLY,\n            \"Proposal should be in tally\"\n        );\n        require(\n            now >= getProposalExpirationTime(_ProposalID),\n            \"voting period has not expired\"\n        );\n        Proposals[_ProposalID].status = ProposalStatus.ENDED;\n    }\n\n    /**\n    * @dev returns the status of a proposal\n    * @param _ProposalID the proposal id\n    */\n    function getProposalStatus(uint _ProposalID)\n        public\n        view\n        validProposal(_ProposalID)\n        returns (ProposalStatus)\n    {\n        return Proposals[_ProposalID].status;\n    }\n\n    /**\n    * @dev returns a proposal expiration time\n    * @param _ProposalID the proposal id\n    */\n    function getProposalExpirationTime(uint _ProposalID)\n        public\n        view\n        validProposal(_ProposalID)\n        returns (uint)\n    {\n        return Proposals[_ProposalID].expirationTime;\n    }\n\n    /**\n    * @dev counts the votes for a proposal. Returns (yeays, nays)\n    * @param _ProposalID the proposal id\n    */\n    function countVotes(uint256 _ProposalID) public view returns (uint, uint) {\n        uint yesVotes = 0;\n        uint noVotes = 0;\n\n        address[] memory voters = Proposals[_ProposalID].voters;\n        for (uint i = 0; i < voters.length; i++) {\n            address voter = voters[i];\n            bool vote = Proposals[_ProposalID].voterInfo[voter].vote;\n            uint256 weight = Proposals[_ProposalID].voterInfo[voter].weight;\n            if (vote == true) {\n                yesVotes += weight;\n            } else {\n                noVotes += weight;\n            }\n        }\n\n        return (yesVotes, noVotes);\n\n    }\n\n    /**\n    * @dev casts a vote.\n    * @param _ProposalID the proposal id\n    * @param numTokens number of voice credits\n    * @param _vote true for yes, false for no\n    */\n    function castVote(uint _ProposalID, uint numTokens, bool _vote)\n        external\n        validProposal(_ProposalID)\n    {\n        require(\n            getProposalStatus(_ProposalID) == ProposalStatus.IN_PROGRESS,\n            \"proposal has expired.\"\n        );\n        require(\n            !userHasVoted(_ProposalID, msg.sender),\n            \"user already voted on this proposal\"\n        );\n        require(\n            getProposalExpirationTime(_ProposalID) > now,\n            \"for this proposal, the voting time expired\"\n        );\n\n        _balances[msg.sender] = _balances[msg.sender].sub(numTokens);\n\n        uint256 weight = sqrt(numTokens); // QV Vote\n\n        Proposal storage curproposal = Proposals[_ProposalID];\n\n        curproposal.voterInfo[msg.sender] = Voter({\n            hasVoted: true,\n            vote: _vote,\n            weight: weight\n        });\n\n        curproposal.voters.push(msg.sender);\n\n        emit VoteCasted(msg.sender, _ProposalID, weight);\n    }\n\n    /**\n    * @dev checks if a user has voted\n    * @param _ProposalID the proposal id\n    * @param _user the address of a voter\n    */\n    function userHasVoted(uint _ProposalID, address _user)\n        internal\n        view\n        validProposal(_ProposalID)\n        returns (bool)\n    {\n        return (Proposals[_ProposalID].voterInfo[_user].hasVoted);\n    }\n\n    /**\n    * @dev checks if a proposal id is valid\n    * @param _ProposalID the proposal id\n    */\n    modifier validProposal(uint _ProposalID) {\n        require(\n            _ProposalID > 0 && _ProposalID <= ProposalCount,\n            \"Not a valid Proposal Id\"\n        );\n        _;\n    }\n\n    /**\n    * @dev returns the square root (in int) of a number\n    * @param x the number (int)\n    */\n    function sqrt(uint x) internal pure returns (uint y) {\n        uint z = (x + 1) / 2;\n        y = x;\n        while (z < y) {\n            y = z;\n            z = (x / z + z) / 2;\n        }\n    }\n\n    /**\n    * @dev minting more tokens for an account\n    */\n    function mint(address account, uint256 amount) public onlyOwner {\n        require(account != address(0), \" mint to the zero address\");\n        _totalSupply = _totalSupply.add(amount);\n        _balances[account] = _balances[account].add(amount);\n    }\n\n    /**\n    * @dev returns the balance of an account\n    */\n    function balanceOf(address account) public view returns (uint256) {\n        return _balances[account];\n    }\n\n}\n",
  "sourcePath": "/Users/zhangxiang/workspace/qv_voting/contracts/QVVoting.sol",
  "compiler": {
    "name": "solc",
    "version": "0.5.16+commit.9c3226ce.Emscripten.clang"
  },
  "schemaVersion": "3.0.23",
  "updatedAt": "2020-03-26T09:14:58.223Z",
  "networkType": "ethereum",
  "devdoc": {
    "details": "the manager for proposals / votes",
    "methods": {
      "balanceOf(address)": {
        "details": "returns the balance of an account"
      },
      "castVote(uint256,uint256,bool)": {
        "details": "casts a vote.",
        "params": {
          "_ProposalID": "the proposal id",
          "_vote": "true for yes, false for no",
          "numTokens": "number of voice credits"
        }
      },
      "countVotes(uint256)": {
        "details": "counts the votes for a proposal. Returns (yeays, nays)",
        "params": {
          "_ProposalID": "the proposal id"
        }
      },
      "createProposal(string,uint256)": {
        "details": "Creates a new proposal.",
        "params": {
          "_description": "the text of the proposal",
          "_voteExpirationTime": "expiration time in minutes"
        }
      },
      "getProposalExpirationTime(uint256)": {
        "details": "returns a proposal expiration time",
        "params": {
          "_ProposalID": "the proposal id"
        }
      },
      "getProposalStatus(uint256)": {
        "details": "returns the status of a proposal",
        "params": {
          "_ProposalID": "the proposal id"
        }
      },
      "isOwner()": {
        "details": "Returns true if the caller is the current owner."
      },
      "mint(address,uint256)": {
        "details": "minting more tokens for an account"
      },
      "owner()": {
        "details": "Returns the address of the current owner."
      },
      "renounceOwnership()": {
        "details": "Leaves the contract without owner. It will not be possible to call `onlyOwner` functions anymore. Can only be called by the current owner.     * > Note: Renouncing ownership will leave the contract without an owner, thereby removing any functionality that is only available to the owner."
      },
      "setProposalToEnded(uint256)": {
        "details": "sets a proposal to ENDED.",
        "params": {
          "_ProposalID": "the proposal id"
        }
      },
      "setProposalToTally(uint256)": {
        "details": "sets a proposal to TALLY.",
        "params": {
          "_ProposalID": "the proposal id"
        }
      },
      "transferOwnership(address)": {
        "details": "Transfers ownership of the contract to a new account (`newOwner`). Can only be called by the current owner."
      }
    },
    "title": "QVVoting"
  },
  "userdoc": {
    "methods": {}
  }
}