{
  "contractName": "QVVoting",
  "abi": [
    {
      "inputs": [],
      "payable": false,
      "stateMutability": "nonpayable",
      "type": "constructor"
    },
    {
      "anonymous": false,
      "inputs": [
        {
          "indexed": true,
          "internalType": "address",
          "name": "account",
          "type": "address"
        }
      ],
      "name": "MinterAdded",
      "type": "event"
    },
    {
      "anonymous": false,
      "inputs": [
        {
          "indexed": true,
          "internalType": "address",
          "name": "account",
          "type": "address"
        }
      ],
      "name": "MinterRemoved",
      "type": "event"
    },
    {
      "anonymous": false,
      "inputs": [
        {
          "indexed": true,
          "internalType": "address",
          "name": "previousOwner",
          "type": "address"
        },
        {
          "indexed": true,
          "internalType": "address",
          "name": "newOwner",
          "type": "address"
        }
      ],
      "name": "OwnershipTransferred",
      "type": "event"
    },
    {
      "anonymous": false,
      "inputs": [
        {
          "indexed": false,
          "internalType": "address",
          "name": "creator",
          "type": "address"
        },
        {
          "indexed": false,
          "internalType": "uint256",
          "name": "ProposalID",
          "type": "uint256"
        },
        {
          "indexed": false,
          "internalType": "string",
          "name": "name",
          "type": "string"
        },
        {
          "indexed": false,
          "internalType": "string",
          "name": "description",
          "type": "string"
        },
        {
          "indexed": false,
          "internalType": "uint256",
          "name": "votingTimeInHours",
          "type": "uint256"
        }
      ],
      "name": "ProposalCreated",
      "type": "event"
    },
    {
      "anonymous": false,
      "inputs": [
        {
          "indexed": false,
          "internalType": "address",
          "name": "voter",
          "type": "address"
        },
        {
          "indexed": false,
          "internalType": "uint256",
          "name": "ProposalID",
          "type": "uint256"
        },
        {
          "indexed": false,
          "internalType": "uint256",
          "name": "weight",
          "type": "uint256"
        }
      ],
      "name": "VoteCasted",
      "type": "event"
    },
    {
      "constant": true,
      "inputs": [],
      "name": "ProposalCount",
      "outputs": [
        {
          "internalType": "uint256",
          "name": "",
          "type": "uint256"
        }
      ],
      "payable": false,
      "stateMutability": "view",
      "type": "function"
    },
    {
      "constant": true,
      "inputs": [
        {
          "internalType": "uint256",
          "name": "",
          "type": "uint256"
        }
      ],
      "name": "Proposals",
      "outputs": [
        {
          "internalType": "address",
          "name": "creator",
          "type": "address"
        },
        {
          "internalType": "enum QVVoting.ProposalStatus",
          "name": "status",
          "type": "uint8"
        },
        {
          "internalType": "uint256",
          "name": "yesVotes",
          "type": "uint256"
        },
        {
          "internalType": "uint256",
          "name": "noVotes",
          "type": "uint256"
        },
        {
          "internalType": "string",
          "name": "name",
          "type": "string"
        },
        {
          "internalType": "string",
          "name": "description",
          "type": "string"
        },
        {
          "internalType": "uint256",
          "name": "expirationTime",
          "type": "uint256"
        }
      ],
      "payable": false,
      "stateMutability": "view",
      "type": "function"
    },
    {
      "constant": false,
      "inputs": [
        {
          "internalType": "address",
          "name": "account",
          "type": "address"
        }
      ],
      "name": "addMinter",
      "outputs": [],
      "payable": false,
      "stateMutability": "nonpayable",
      "type": "function"
    },
    {
      "constant": true,
      "inputs": [],
      "name": "createCost",
      "outputs": [
        {
          "internalType": "uint256",
          "name": "",
          "type": "uint256"
        }
      ],
      "payable": false,
      "stateMutability": "view",
      "type": "function"
    },
    {
      "constant": true,
      "inputs": [
        {
          "internalType": "address",
          "name": "account",
          "type": "address"
        }
      ],
      "name": "isMinter",
      "outputs": [
        {
          "internalType": "bool",
          "name": "",
          "type": "bool"
        }
      ],
      "payable": false,
      "stateMutability": "view",
      "type": "function"
    },
    {
      "constant": true,
      "inputs": [],
      "name": "isOwner",
      "outputs": [
        {
          "internalType": "bool",
          "name": "",
          "type": "bool"
        }
      ],
      "payable": false,
      "stateMutability": "view",
      "type": "function"
    },
    {
      "constant": true,
      "inputs": [],
      "name": "name",
      "outputs": [
        {
          "internalType": "string",
          "name": "",
          "type": "string"
        }
      ],
      "payable": false,
      "stateMutability": "view",
      "type": "function"
    },
    {
      "constant": true,
      "inputs": [],
      "name": "owner",
      "outputs": [
        {
          "internalType": "address",
          "name": "",
          "type": "address"
        }
      ],
      "payable": false,
      "stateMutability": "view",
      "type": "function"
    },
    {
      "constant": false,
      "inputs": [],
      "name": "renounceMinter",
      "outputs": [],
      "payable": false,
      "stateMutability": "nonpayable",
      "type": "function"
    },
    {
      "constant": false,
      "inputs": [],
      "name": "renounceOwnership",
      "outputs": [],
      "payable": false,
      "stateMutability": "nonpayable",
      "type": "function"
    },
    {
      "constant": true,
      "inputs": [],
      "name": "symbol",
      "outputs": [
        {
          "internalType": "string",
          "name": "",
          "type": "string"
        }
      ],
      "payable": false,
      "stateMutability": "view",
      "type": "function"
    },
    {
      "constant": false,
      "inputs": [
        {
          "internalType": "address",
          "name": "newOwner",
          "type": "address"
        }
      ],
      "name": "transferOwnership",
      "outputs": [],
      "payable": false,
      "stateMutability": "nonpayable",
      "type": "function"
    },
    {
      "constant": false,
      "inputs": [
        {
          "internalType": "string",
          "name": "_name",
          "type": "string"
        },
        {
          "internalType": "string",
          "name": "_description",
          "type": "string"
        },
        {
          "internalType": "uint256",
          "name": "_voteExpirationTime",
          "type": "uint256"
        }
      ],
      "name": "createProposal",
      "outputs": [
        {
          "internalType": "uint256",
          "name": "",
          "type": "uint256"
        }
      ],
      "payable": false,
      "stateMutability": "nonpayable",
      "type": "function"
    },
    {
      "constant": false,
      "inputs": [
        {
          "internalType": "uint256",
          "name": "_ProposalID",
          "type": "uint256"
        }
      ],
      "name": "setProposalToTally",
      "outputs": [],
      "payable": false,
      "stateMutability": "nonpayable",
      "type": "function"
    },
    {
      "constant": false,
      "inputs": [
        {
          "internalType": "uint256",
          "name": "_ProposalID",
          "type": "uint256"
        }
      ],
      "name": "setProposalToEnded",
      "outputs": [],
      "payable": false,
      "stateMutability": "nonpayable",
      "type": "function"
    },
    {
      "constant": false,
      "inputs": [
        {
          "internalType": "uint256",
          "name": "_createCost",
          "type": "uint256"
        }
      ],
      "name": "setCreateCost",
      "outputs": [],
      "payable": false,
      "stateMutability": "nonpayable",
      "type": "function"
    },
    {
      "constant": true,
      "inputs": [
        {
          "internalType": "uint256",
          "name": "_ProposalID",
          "type": "uint256"
        }
      ],
      "name": "getProposalStatus",
      "outputs": [
        {
          "internalType": "enum QVVoting.ProposalStatus",
          "name": "",
          "type": "uint8"
        }
      ],
      "payable": false,
      "stateMutability": "view",
      "type": "function"
    },
    {
      "constant": true,
      "inputs": [
        {
          "internalType": "uint256",
          "name": "_ProposalID",
          "type": "uint256"
        }
      ],
      "name": "getProposalExpirationTime",
      "outputs": [
        {
          "internalType": "uint256",
          "name": "",
          "type": "uint256"
        }
      ],
      "payable": false,
      "stateMutability": "view",
      "type": "function"
    },
    {
      "constant": true,
      "inputs": [
        {
          "internalType": "uint256",
          "name": "_ProposalID",
          "type": "uint256"
        }
      ],
      "name": "countVotes",
      "outputs": [
        {
          "internalType": "uint256",
          "name": "",
          "type": "uint256"
        },
        {
          "internalType": "uint256",
          "name": "",
          "type": "uint256"
        }
      ],
      "payable": false,
      "stateMutability": "view",
      "type": "function"
    },
    {
      "constant": false,
      "inputs": [
        {
          "internalType": "uint256",
          "name": "_ProposalID",
          "type": "uint256"
        },
        {
          "internalType": "uint256",
          "name": "numTokens",
          "type": "uint256"
        },
        {
          "internalType": "bool",
          "name": "_vote",
          "type": "bool"
        }
      ],
      "name": "castVote",
      "outputs": [],
      "payable": false,
      "stateMutability": "nonpayable",
      "type": "function"
    },
    {
      "constant": false,
      "inputs": [
        {
          "internalType": "address",
          "name": "account",
          "type": "address"
        },
        {
          "internalType": "uint256",
          "name": "amount",
          "type": "uint256"
        }
      ],
      "name": "mint",
      "outputs": [],
      "payable": false,
      "stateMutability": "nonpayable",
      "type": "function"
    },
    {
      "constant": true,
      "inputs": [
        {
          "internalType": "address",
          "name": "account",
          "type": "address"
        }
      ],
      "name": "balanceOf",
      "outputs": [
        {
          "internalType": "uint256",
          "name": "",
          "type": "uint256"
        }
      ],
      "payable": false,
      "stateMutability": "view",
      "type": "function"
    }
  ],
  "bytecode": "0x60806040523480156200001157600080fd5b50336000806101000a81548173ffffffffffffffffffffffffffffffffffffffff021916908373ffffffffffffffffffffffffffffffffffffffff1602179055506000809054906101000a900473ffffffffffffffffffffffffffffffffffffffff1673ffffffffffffffffffffffffffffffffffffffff16600073ffffffffffffffffffffffffffffffffffffffff167f8be0079c531659141344cd1fd0a4f28419497f9722a3daafe3b4186f6b6457e060405160405180910390a3620000df336200018960201b60201c565b6040518060400160405280600381526020017f5156560000000000000000000000000000000000000000000000000000000000815250600390805190602001906200012c929190620003ae565b506040518060400160405280600981526020017f515620566f74696e670000000000000000000000000000000000000000000000815250600490805190602001906200017a929190620003ae565b5060646008819055506200045d565b620001a4816001620001ea60201b620024f31790919060201c565b8073ffffffffffffffffffffffffffffffffffffffff167f6ae172837ea30b801fbfcdd4108aa1d5bf8ff775444fd70256b44e6bf3dfc3f660405160405180910390a250565b620001fc8282620002ce60201b60201c565b1562000270576040517f08c379a000000000000000000000000000000000000000000000000000000000815260040180806020018281038252601f8152602001807f526f6c65733a206163636f756e7420616c72656164792068617320726f6c650081525060200191505060405180910390fd5b60018260000160008373ffffffffffffffffffffffffffffffffffffffff1673ffffffffffffffffffffffffffffffffffffffff16815260200190815260200160002060006101000a81548160ff0219169083151502179055505050565b60008073ffffffffffffffffffffffffffffffffffffffff168273ffffffffffffffffffffffffffffffffffffffff16141562000357576040517f08c379a000000000000000000000000000000000000000000000000000000000815260040180806020018281038252602281526020018062002cb86022913960400191505060405180910390fd5b8260000160008373ffffffffffffffffffffffffffffffffffffffff1673ffffffffffffffffffffffffffffffffffffffff16815260200190815260200160002060009054906101000a900460ff16905092915050565b828054600181600116156101000203166002900490600052602060002090601f016020900481019282601f10620003f157805160ff191683800117855562000422565b8280016001018555821562000422579182015b828111156200042157825182559160200191906001019062000404565b5b50905062000431919062000435565b5090565b6200045a91905b80821115620004565760008160009055506001016200043c565b5090565b90565b61284b806200046d6000396000f3fe608060405234801561001057600080fd5b50600436106101425760003560e01c80638f32d59b116100b8578063ba0bd64a1161007c578063ba0bd64a14610636578063be747c1c14610654578063c7bca40914610672578063d1dbe7d8146106a0578063f2fde38b14610810578063f9000ba81461085457610142565b80638f32d59b146104e757806395d89b4114610509578063983b2d561461058c57806398650275146105d0578063aa271e1a146105da57610142565b806340c10f191161010a57806340c10f191461037d5780634c3bd9d6146103cb5780634d5f9eba146103f957806370a082311461043b578063715018a6146104935780638da5cb5b1461049d57610142565b806306fdde03146101475780630ce0ebf4146101ca5780631840f0ca146102b65780632d5e9d29146102ff578063401853b71461032d575b600080fd5b61014f610898565b6040518080602001828103825283818151815260200191508051906020019080838360005b8381101561018f578082015181840152602081019050610174565b50505050905090810190601f1680156101bc5780820380516001836020036101000a031916815260200191505b509250505060405180910390f35b6102a0600480360360608110156101e057600080fd5b81019080803590602001906401000000008111156101fd57600080fd5b82018360208201111561020f57600080fd5b8035906020019184600183028401116401000000008311171561023157600080fd5b90919293919293908035906020019064010000000081111561025257600080fd5b82018360208201111561026457600080fd5b8035906020019184600183028401116401000000008311171561028657600080fd5b909192939192939080359060200190929190505050610936565b6040518082815260200191505060405180910390f35b6102e2600480360360208110156102cc57600080fd5b8101908080359060200190929190505050610bfd565b604051808381526020018281526020019250505060405180910390f35b61032b6004803603602081101561031557600080fd5b8101908080359060200190929190505050610dcf565b005b6103596004803603602081101561034357600080fd5b8101908080359060200190929190505050611037565b6040518082600281111561036957fe5b60ff16815260200191505060405180910390f35b6103c96004803603604081101561039357600080fd5b81019080803573ffffffffffffffffffffffffffffffffffffffff169060200190929190803590602001909291905050506110ea565b005b6103f7600480360360208110156103e157600080fd5b81019080803590602001909291905050506112bb565b005b6104256004803603602081101561040f57600080fd5b8101908080359060200190929190505050611523565b6040518082815260200191505060405180910390f35b61047d6004803603602081101561045157600080fd5b81019080803573ffffffffffffffffffffffffffffffffffffffff1690602001909291905050506115c9565b6040518082815260200191505060405180910390f35b61049b611612565b005b6104a561174b565b604051808273ffffffffffffffffffffffffffffffffffffffff1673ffffffffffffffffffffffffffffffffffffffff16815260200191505060405180910390f35b6104ef611774565b604051808215151515815260200191505060405180910390f35b6105116117cb565b6040518080602001828103825283818151815260200191508051906020019080838360005b83811015610551578082015181840152602081019050610536565b50505050905090810190601f16801561057e5780820380516001836020036101000a031916815260200191505b509250505060405180910390f35b6105ce600480360360208110156105a257600080fd5b81019080803573ffffffffffffffffffffffffffffffffffffffff169060200190929190505050611869565b005b6105d86118d3565b005b61061c600480360360208110156105f057600080fd5b81019080803573ffffffffffffffffffffffffffffffffffffffff1690602001909291905050506118de565b604051808215151515815260200191505060405180910390f35b61063e6118fb565b6040518082815260200191505060405180910390f35b61065c611901565b6040518082815260200191505060405180910390f35b61069e6004803603602081101561068857600080fd5b8101908080359060200190929190505050611907565b005b6106cc600480360360208110156106b657600080fd5b810190808035906020019092919050505061198b565b604051808873ffffffffffffffffffffffffffffffffffffffff1673ffffffffffffffffffffffffffffffffffffffff16815260200187600281111561070e57fe5b60ff1681526020018681526020018581526020018060200180602001848152602001838103835286818151815260200191508051906020019080838360005b8381101561076857808201518184015260208101905061074d565b50505050905090810190601f1680156107955780820380516001836020036101000a031916815260200191505b50838103825285818151815260200191508051906020019080838360005b838110156107ce5780820151818401526020810190506107b3565b50505050905090810190601f1680156107fb5780820380516001836020036101000a031916815260200191505b50995050505050505050505060405180910390f35b6108526004803603602081101561082657600080fd5b81019080803573ffffffffffffffffffffffffffffffffffffffff169060200190929190505050611b2a565b005b6108966004803603606081101561086a57600080fd5b810190808035906020019092919080359060200190929190803515159060200190929190505050611bb0565b005b60048054600181600116156101000203166002900480601f01602080910402602001604051908101604052809291908181526020018280546001816001161561010002031660029004801561092e5780601f106109035761010080835404028352916020019161092e565b820191906000526020600020905b81548152906001019060200180831161091157829003601f168201915b505050505081565b60008082116109ad576040517f08c379a000000000000000000000000000000000000000000000000000000000815260040180806020018281038252601d8152602001807f54686520766f74696e6720706572696f642063616e6e6f74206265203000000081525060200191505060405180910390fd5b610a01600854600560003373ffffffffffffffffffffffffffffffffffffffff1673ffffffffffffffffffffffffffffffffffffffff16815260200190815260200160002054611fd390919063ffffffff16565b600560003373ffffffffffffffffffffffffffffffffffffffff1673ffffffffffffffffffffffffffffffffffffffff1681526020019081526020016000208190555060076000815480929190600101919050555060006006600060075481526020019081526020016000209050338160000160006101000a81548173ffffffffffffffffffffffffffffffffffffffff021916908373ffffffffffffffffffffffffffffffffffffffff16021790555060008160000160146101000a81548160ff02191690836002811115610ad357fe5b0217905550600183603c0202420181600601819055508686826003019190610afc92919061268b565b508484826004019190610b1092919061268b565b507ff785e1b2331d1de20396a84842f6f3846769a9d9375c206a135bbef3eb0ccdd4336007548989898989604051808873ffffffffffffffffffffffffffffffffffffffff1673ffffffffffffffffffffffffffffffffffffffff16815260200187815260200180602001806020018481526020018381038352888882818152602001925080828437600081840152601f19601f8201169050808301925050508381038252868682818152602001925080828437600081840152601f19601f820116905080830192505050995050505050505050505060405180910390a160075491505095945050505050565b60008060008090506000809050606060066000878152602001908152602001600020600501805480602002602001604051908101604052809291908181526020018280548015610ca257602002820191906000526020600020905b8160009054906101000a900473ffffffffffffffffffffffffffffffffffffffff1673ffffffffffffffffffffffffffffffffffffffff1681526020019060010190808311610c58575b5050505050905060008090505b8151811015610dc0576000828281518110610cc657fe5b602002602001015190506000600660008a815260200190815260200160002060070160008373ffffffffffffffffffffffffffffffffffffffff1673ffffffffffffffffffffffffffffffffffffffff16815260200190815260200160002060000160019054906101000a900460ff1690506000600660008b815260200190815260200160002060070160008473ffffffffffffffffffffffffffffffffffffffff1673ffffffffffffffffffffffffffffffffffffffff168152602001908152602001600020600101549050600115158215151415610daa578087019650610db0565b80860195505b5050508080600101915050610caf565b50828294509450505050915091565b80600081118015610de257506007548111155b610e54576040517f08c379a00000000000000000000000000000000000000000000000000000000081526004018080602001828103825260178152602001807f4e6f7420612076616c69642050726f706f73616c20496400000000000000000081525060200191505060405180910390fd5b610e5c611774565b610ece576040517f08c379a00000000000000000000000000000000000000000000000000000000081526004018080602001828103825260208152602001807f4f776e61626c653a2063616c6c6572206973206e6f7420746865206f776e657281525060200191505060405180910390fd5b60006002811115610edb57fe5b6006600084815260200190815260200160002060000160149054906101000a900460ff166002811115610f0a57fe5b14610f7d576040517f08c379a00000000000000000000000000000000000000000000000000000000081526004018080602001828103825260178152602001807f566f7465206973206e6f7420696e2070726f677265737300000000000000000081525060200191505060405180910390fd5b610f8682611523565b421015610ffb576040517f08c379a000000000000000000000000000000000000000000000000000000000815260040180806020018281038252601d8152602001807f766f74696e6720706572696f6420686173206e6f74206578706972656400000081525060200191505060405180910390fd5b60016006600084815260200190815260200160002060000160146101000a81548160ff0219169083600281111561102e57fe5b02179055505050565b60008160008111801561104c57506007548111155b6110be576040517f08c379a00000000000000000000000000000000000000000000000000000000081526004018080602001828103825260178152602001807f4e6f7420612076616c69642050726f706f73616c20496400000000000000000081525060200191505060405180910390fd5b6006600084815260200190815260200160002060000160149054906101000a900460ff16915050919050565b6110f2611774565b611164576040517f08c379a00000000000000000000000000000000000000000000000000000000081526004018080602001828103825260208152602001807f4f776e61626c653a2063616c6c6572206973206e6f7420746865206f776e657281525060200191505060405180910390fd5b600073ffffffffffffffffffffffffffffffffffffffff168273ffffffffffffffffffffffffffffffffffffffff161415611207576040517f08c379a00000000000000000000000000000000000000000000000000000000081526004018080602001828103825260198152602001807f206d696e7420746f20746865207a65726f20616464726573730000000000000081525060200191505060405180910390fd5b61121c8160025461205c90919063ffffffff16565b60028190555061127481600560008573ffffffffffffffffffffffffffffffffffffffff1673ffffffffffffffffffffffffffffffffffffffff1681526020019081526020016000205461205c90919063ffffffff16565b600560008473ffffffffffffffffffffffffffffffffffffffff1673ffffffffffffffffffffffffffffffffffffffff168152602001908152602001600020819055505050565b806000811180156112ce57506007548111155b611340576040517f08c379a00000000000000000000000000000000000000000000000000000000081526004018080602001828103825260178152602001807f4e6f7420612076616c69642050726f706f73616c20496400000000000000000081525060200191505060405180910390fd5b611348611774565b6113ba576040517f08c379a00000000000000000000000000000000000000000000000000000000081526004018080602001828103825260208152602001807f4f776e61626c653a2063616c6c6572206973206e6f7420746865206f776e657281525060200191505060405180910390fd5b600160028111156113c757fe5b6006600084815260200190815260200160002060000160149054906101000a900460ff1660028111156113f657fe5b14611469576040517f08c379a000000000000000000000000000000000000000000000000000000000815260040180806020018281038252601b8152602001807f50726f706f73616c2073686f756c6420626520696e2074616c6c79000000000081525060200191505060405180910390fd5b61147282611523565b4210156114e7576040517f08c379a000000000000000000000000000000000000000000000000000000000815260040180806020018281038252601d8152602001807f766f74696e6720706572696f6420686173206e6f74206578706972656400000081525060200191505060405180910390fd5b60026006600084815260200190815260200160002060000160146101000a81548160ff0219169083600281111561151a57fe5b02179055505050565b60008160008111801561153857506007548111155b6115aa576040517f08c379a00000000000000000000000000000000000000000000000000000000081526004018080602001828103825260178152602001807f4e6f7420612076616c69642050726f706f73616c20496400000000000000000081525060200191505060405180910390fd5b6006600084815260200190815260200160002060060154915050919050565b6000600560008373ffffffffffffffffffffffffffffffffffffffff1673ffffffffffffffffffffffffffffffffffffffff168152602001908152602001600020549050919050565b61161a611774565b61168c576040517f08c379a00000000000000000000000000000000000000000000000000000000081526004018080602001828103825260208152602001807f4f776e61626c653a2063616c6c6572206973206e6f7420746865206f776e657281525060200191505060405180910390fd5b600073ffffffffffffffffffffffffffffffffffffffff166000809054906101000a900473ffffffffffffffffffffffffffffffffffffffff1673ffffffffffffffffffffffffffffffffffffffff167f8be0079c531659141344cd1fd0a4f28419497f9722a3daafe3b4186f6b6457e060405160405180910390a360008060006101000a81548173ffffffffffffffffffffffffffffffffffffffff021916908373ffffffffffffffffffffffffffffffffffffffff160217905550565b60008060009054906101000a900473ffffffffffffffffffffffffffffffffffffffff16905090565b60008060009054906101000a900473ffffffffffffffffffffffffffffffffffffffff1673ffffffffffffffffffffffffffffffffffffffff163373ffffffffffffffffffffffffffffffffffffffff1614905090565b60038054600181600116156101000203166002900480601f0160208091040260200160405190810160405280929190818152602001828054600181600116156101000203166002900480156118615780601f1061183657610100808354040283529160200191611861565b820191906000526020600020905b81548152906001019060200180831161184457829003601f168201915b505050505081565b611872336118de565b6118c7576040517f08c379a00000000000000000000000000000000000000000000000000000000081526004018080602001828103825260308152602001806127576030913960400191505060405180910390fd5b6118d0816120e4565b50565b6118dc3361213e565b565b60006118f482600161219890919063ffffffff16565b9050919050565b60085481565b60075481565b61190f611774565b611981576040517f08c379a00000000000000000000000000000000000000000000000000000000081526004018080602001828103825260208152602001807f4f776e61626c653a2063616c6c6572206973206e6f7420746865206f776e657281525060200191505060405180910390fd5b8060088190555050565b60066020528060005260406000206000915090508060000160009054906101000a900473ffffffffffffffffffffffffffffffffffffffff16908060000160149054906101000a900460ff1690806001015490806002015490806003018054600181600116156101000203166002900480601f016020809104026020016040519081016040528092919081815260200182805460018160011615610100020316600290048015611a7c5780601f10611a5157610100808354040283529160200191611a7c565b820191906000526020600020905b815481529060010190602001808311611a5f57829003601f168201915b505050505090806004018054600181600116156101000203166002900480601f016020809104026020016040519081016040528092919081815260200182805460018160011615610100020316600290048015611b1a5780601f10611aef57610100808354040283529160200191611b1a565b820191906000526020600020905b815481529060010190602001808311611afd57829003601f168201915b5050505050908060060154905087565b611b32611774565b611ba4576040517f08c379a00000000000000000000000000000000000000000000000000000000081526004018080602001828103825260208152602001807f4f776e61626c653a2063616c6c6572206973206e6f7420746865206f776e657281525060200191505060405180910390fd5b611bad81612276565b50565b82600081118015611bc357506007548111155b611c35576040517f08c379a00000000000000000000000000000000000000000000000000000000081526004018080602001828103825260178152602001807f4e6f7420612076616c69642050726f706f73616c20496400000000000000000081525060200191505060405180910390fd5b60006002811115611c4257fe5b611c4b85611037565b6002811115611c5657fe5b14611cc9576040517f08c379a00000000000000000000000000000000000000000000000000000000081526004018080602001828103825260158152602001807f70726f706f73616c2068617320657870697265642e000000000000000000000081525060200191505060405180910390fd5b611cd384336123ba565b15611d29576040517f08c379a00000000000000000000000000000000000000000000000000000000081526004018080602001828103825260238152602001806127f46023913960400191505060405180910390fd5b42611d3385611523565b11611d89576040517f08c379a000000000000000000000000000000000000000000000000000000000815260040180806020018281038252602a8152602001806127ca602a913960400191505060405180910390fd5b611ddb83600560003373ffffffffffffffffffffffffffffffffffffffff1673ffffffffffffffffffffffffffffffffffffffff16815260200190815260200160002054611fd390919063ffffffff16565b600560003373ffffffffffffffffffffffffffffffffffffffff1673ffffffffffffffffffffffffffffffffffffffff168152602001908152602001600020819055506000611e29846124ae565b9050600060066000878152602001908152602001600020905060405180606001604052806001151581526020018515158152602001838152508160070160003373ffffffffffffffffffffffffffffffffffffffff1673ffffffffffffffffffffffffffffffffffffffff16815260200190815260200160002060008201518160000160006101000a81548160ff02191690831515021790555060208201518160000160016101000a81548160ff02191690831515021790555060408201518160010155905050806005013390806001815401808255809150509060018203906000526020600020016000909192909190916101000a81548173ffffffffffffffffffffffffffffffffffffffff021916908373ffffffffffffffffffffffffffffffffffffffff160217905550507fcb87df07b1c304492bd875a5c8b98672eca500939412809ea229afef1d745188338784604051808473ffffffffffffffffffffffffffffffffffffffff1673ffffffffffffffffffffffffffffffffffffffff168152602001838152602001828152602001935050505060405180910390a1505050505050565b60008282111561204b576040517f08c379a000000000000000000000000000000000000000000000000000000000815260040180806020018281038252601e8152602001807f536166654d6174683a207375627472616374696f6e206f766572666c6f77000081525060200191505060405180910390fd5b600082840390508091505092915050565b6000808284019050838110156120da576040517f08c379a000000000000000000000000000000000000000000000000000000000815260040180806020018281038252601b8152602001807f536166654d6174683a206164646974696f6e206f766572666c6f77000000000081525060200191505060405180910390fd5b8091505092915050565b6120f88160016124f390919063ffffffff16565b8073ffffffffffffffffffffffffffffffffffffffff167f6ae172837ea30b801fbfcdd4108aa1d5bf8ff775444fd70256b44e6bf3dfc3f660405160405180910390a250565b6121528160016125ce90919063ffffffff16565b8073ffffffffffffffffffffffffffffffffffffffff167fe94479a9f7e1952cc78f2d6baab678adc1b772d936c6583def489e524cb6669260405160405180910390a250565b60008073ffffffffffffffffffffffffffffffffffffffff168273ffffffffffffffffffffffffffffffffffffffff16141561221f576040517f08c379a00000000000000000000000000000000000000000000000000000000081526004018080602001828103825260228152602001806127a86022913960400191505060405180910390fd5b8260000160008373ffffffffffffffffffffffffffffffffffffffff1673ffffffffffffffffffffffffffffffffffffffff16815260200190815260200160002060009054906101000a900460ff16905092915050565b600073ffffffffffffffffffffffffffffffffffffffff168173ffffffffffffffffffffffffffffffffffffffff1614156122fc576040517f08c379a00000000000000000000000000000000000000000000000000000000081526004018080602001828103825260268152602001806127316026913960400191505060405180910390fd5b8073ffffffffffffffffffffffffffffffffffffffff166000809054906101000a900473ffffffffffffffffffffffffffffffffffffffff1673ffffffffffffffffffffffffffffffffffffffff167f8be0079c531659141344cd1fd0a4f28419497f9722a3daafe3b4186f6b6457e060405160405180910390a3806000806101000a81548173ffffffffffffffffffffffffffffffffffffffff021916908373ffffffffffffffffffffffffffffffffffffffff16021790555050565b6000826000811180156123cf57506007548111155b612441576040517f08c379a00000000000000000000000000000000000000000000000000000000081526004018080602001828103825260178152602001807f4e6f7420612076616c69642050726f706f73616c20496400000000000000000081525060200191505060405180910390fd5b6006600085815260200190815260200160002060070160008473ffffffffffffffffffffffffffffffffffffffff1673ffffffffffffffffffffffffffffffffffffffff16815260200190815260200160002060000160009054906101000a900460ff1691505092915050565b600080600260018401816124be57fe5b0490508291505b818110156124ed578091506002818285816124dc57fe5b0401816124e557fe5b0490506124c5565b50919050565b6124fd8282612198565b15612570576040517f08c379a000000000000000000000000000000000000000000000000000000000815260040180806020018281038252601f8152602001807f526f6c65733a206163636f756e7420616c72656164792068617320726f6c650081525060200191505060405180910390fd5b60018260000160008373ffffffffffffffffffffffffffffffffffffffff1673ffffffffffffffffffffffffffffffffffffffff16815260200190815260200160002060006101000a81548160ff0219169083151502179055505050565b6125d88282612198565b61262d576040517f08c379a00000000000000000000000000000000000000000000000000000000081526004018080602001828103825260218152602001806127876021913960400191505060405180910390fd5b60008260000160008373ffffffffffffffffffffffffffffffffffffffff1673ffffffffffffffffffffffffffffffffffffffff16815260200190815260200160002060006101000a81548160ff0219169083151502179055505050565b828054600181600116156101000203166002900490600052602060002090601f016020900481019282601f106126cc57803560ff19168380011785556126fa565b828001600101855582156126fa579182015b828111156126f95782358255916020019190600101906126de565b5b509050612707919061270b565b5090565b61272d91905b80821115612729576000816000905550600101612711565b5090565b9056fe4f776e61626c653a206e6577206f776e657220697320746865207a65726f20616464726573734d696e746572526f6c653a2063616c6c657220646f6573206e6f74206861766520746865204d696e74657220726f6c65526f6c65733a206163636f756e7420646f6573206e6f74206861766520726f6c65526f6c65733a206163636f756e7420697320746865207a65726f2061646472657373666f7220746869732070726f706f73616c2c2074686520766f74696e672074696d6520657870697265647573657220616c726561647920766f746564206f6e20746869732070726f706f73616ca265627a7a723158202d9316f978d4f71a6ae9bb9d162767f2a00f0935b81cdf8ab6c8ac744ad5648864736f6c63430005100032526f6c65733a206163636f756e7420697320746865207a65726f2061646472657373",
  "source": "pragma solidity >=0.4.25 <0.6.0;\n\nimport \"openzeppelin-solidity/contracts/math/SafeMath.sol\";\nimport \"openzeppelin-solidity/contracts/ownership/Ownable.sol\";\nimport \"openzeppelin-solidity/contracts/access/roles/MinterRole.sol\";\n\n/**\n * @title QVVoting\n * @dev the manager for proposals / votes\n */\ncontract QVVoting is Ownable, MinterRole {\n    using SafeMath for uint256;\n\n    uint256 private _totalSupply;\n    string public symbol;\n    string public name;\n    mapping(address => uint256) private _balances;\n\n    event VoteCasted(address voter, uint ProposalID, uint256 weight);\n\n    event ProposalCreated(\n        address creator,\n        uint256 ProposalID,\n        string name,\n        string description,\n        uint votingTimeInHours\n    );\n\n    enum ProposalStatus {IN_PROGRESS, TALLY, ENDED}\n\n    struct Proposal {\n        address creator;\n        ProposalStatus status;\n        uint256 yesVotes;\n        uint256 noVotes;\n        string name;\n        string description;\n        address[] voters;\n        uint expirationTime;\n        mapping(address => Voter) voterInfo;\n    }\n\n    struct Voter {\n        bool hasVoted;\n        bool vote;\n        uint256 weight;\n    }\n\n    mapping(uint256 => Proposal) public Proposals;\n    uint public ProposalCount;\n    uint public createCost;\n\n    constructor() public {\n        symbol = \"QVV\";\n        name = \"QV Voting\";\n        createCost = 100;\n    }\n\n    /**\n    * @dev Creates a new proposal.\n    * @param _name the name of the proposal\n    * @param _description the text of the proposal\n    * @param _voteExpirationTime expiration time in minutes\n    */\n    function createProposal(\n        string calldata _name,\n        string calldata _description,\n        uint _voteExpirationTime\n    ) external returns (uint) {\n        require(_voteExpirationTime > 0, \"The voting period cannot be 0\");\n\n        _balances[msg.sender] = _balances[msg.sender].sub(createCost);\n        ProposalCount++;\n\n        Proposal storage curProposal = Proposals[ProposalCount];\n        curProposal.creator = msg.sender;\n        curProposal.status = ProposalStatus.IN_PROGRESS;\n        curProposal.expirationTime = now + 60 * _voteExpirationTime * 1 seconds;\n        curProposal.name = _name;\n        curProposal.description = _description;\n\n        emit ProposalCreated(\n            msg.sender,\n            ProposalCount,\n            _name,\n            _description,\n            _voteExpirationTime\n        );\n        return ProposalCount;\n    }\n\n    /**\n    * @dev sets a proposal to TALLY.\n    * @param _ProposalID the proposal id\n    */\n    function setProposalToTally(uint _ProposalID)\n        external\n        validProposal(_ProposalID)\n        onlyOwner\n    {\n        require(\n            Proposals[_ProposalID].status == ProposalStatus.IN_PROGRESS,\n            \"Vote is not in progress\"\n        );\n        require(\n            now >= getProposalExpirationTime(_ProposalID),\n            \"voting period has not expired\"\n        );\n        Proposals[_ProposalID].status = ProposalStatus.TALLY;\n    }\n\n    /**\n    * @dev sets a proposal to ENDED.\n    * @param _ProposalID the proposal id\n    */\n    function setProposalToEnded(uint _ProposalID)\n        external\n        validProposal(_ProposalID)\n        onlyOwner\n    {\n        require(\n            Proposals[_ProposalID].status == ProposalStatus.TALLY,\n            \"Proposal should be in tally\"\n        );\n        require(\n            now >= getProposalExpirationTime(_ProposalID),\n            \"voting period has not expired\"\n        );\n        Proposals[_ProposalID].status = ProposalStatus.ENDED;\n    }\n\n    /**\n    * @dev set create cost.\n    */\n    function setCreateCost(uint _createCost)\n        external\n        onlyOwner\n    {\n        createCost = _createCost;\n    }\n\n    /**\n    * @dev returns the status of a proposal\n    * @param _ProposalID the proposal id\n    */\n    function getProposalStatus(uint _ProposalID)\n        public\n        view\n        validProposal(_ProposalID)\n        returns (ProposalStatus)\n    {\n        return Proposals[_ProposalID].status;\n    }\n\n    /**\n    * @dev returns a proposal expiration time\n    * @param _ProposalID the proposal id\n    */\n    function getProposalExpirationTime(uint _ProposalID)\n        public\n        view\n        validProposal(_ProposalID)\n        returns (uint)\n    {\n        return Proposals[_ProposalID].expirationTime;\n    }\n\n    /**\n    * @dev counts the votes for a proposal. Returns (yeays, nays)\n    * @param _ProposalID the proposal id\n    */\n    function countVotes(uint256 _ProposalID) public view returns (uint, uint) {\n        uint yesVotes = 0;\n        uint noVotes = 0;\n\n        address[] memory voters = Proposals[_ProposalID].voters;\n        for (uint i = 0; i < voters.length; i++) {\n            address voter = voters[i];\n            bool vote = Proposals[_ProposalID].voterInfo[voter].vote;\n            uint256 weight = Proposals[_ProposalID].voterInfo[voter].weight;\n            if (vote == true) {\n                yesVotes += weight;\n            } else {\n                noVotes += weight;\n            }\n        }\n\n        return (yesVotes, noVotes);\n\n    }\n\n    /**\n    * @dev casts a vote.\n    * @param _ProposalID the proposal id\n    * @param numTokens number of voice credits\n    * @param _vote true for yes, false for no\n    */\n    function castVote(uint _ProposalID, uint numTokens, bool _vote)\n        external\n        validProposal(_ProposalID)\n    {\n        require(\n            getProposalStatus(_ProposalID) == ProposalStatus.IN_PROGRESS,\n            \"proposal has expired.\"\n        );\n        require(\n            !userHasVoted(_ProposalID, msg.sender),\n            \"user already voted on this proposal\"\n        );\n        require(\n            getProposalExpirationTime(_ProposalID) > now,\n            \"for this proposal, the voting time expired\"\n        );\n\n        _balances[msg.sender] = _balances[msg.sender].sub(numTokens);\n\n        uint256 weight = sqrt(numTokens); // QV Vote\n\n        Proposal storage curproposal = Proposals[_ProposalID];\n\n        curproposal.voterInfo[msg.sender] = Voter({\n            hasVoted: true,\n            vote: _vote,\n            weight: weight\n        });\n\n        curproposal.voters.push(msg.sender);\n\n        emit VoteCasted(msg.sender, _ProposalID, weight);\n    }\n\n    /**\n    * @dev checks if a user has voted\n    * @param _ProposalID the proposal id\n    * @param _user the address of a voter\n    */\n    function userHasVoted(uint _ProposalID, address _user)\n        internal\n        view\n        validProposal(_ProposalID)\n        returns (bool)\n    {\n        return (Proposals[_ProposalID].voterInfo[_user].hasVoted);\n    }\n\n    /**\n    * @dev checks if a proposal id is valid\n    * @param _ProposalID the proposal id\n    */\n    modifier validProposal(uint _ProposalID) {\n        require(\n            _ProposalID > 0 && _ProposalID <= ProposalCount,\n            \"Not a valid Proposal Id\"\n        );\n        _;\n    }\n\n    /**\n    * @dev returns the square root (in int) of a number\n    * @param x the number (int)\n    */\n    function sqrt(uint x) internal pure returns (uint y) {\n        uint z = (x + 1) / 2;\n        y = x;\n        while (z < y) {\n            y = z;\n            z = (x / z + z) / 2;\n        }\n    }\n\n    /**\n    * @dev minting more tokens for an account\n    */\n    function mint(address account, uint256 amount) public onlyOwner {\n        require(account != address(0), \" mint to the zero address\");\n        _totalSupply = _totalSupply.add(amount);\n        _balances[account] = _balances[account].add(amount);\n    }\n\n    /**\n    * @dev returns the balance of an account\n    */\n    function balanceOf(address account) public view returns (uint256) {\n        return _balances[account];\n    }\n\n}\n",
  "sourcePath": "/Users/zhangxiang/workspace/qv_voting/contracts/QVVoting.sol",
  "compiler": {
    "name": "solc",
    "version": "0.5.16+commit.9c3226ce.Emscripten.clang"
  },
  "schemaVersion": "3.0.23",
  "updatedAt": "2020-04-01T06:02:49.802Z",
  "networkType": "ethereum",
  "devdoc": {
    "details": "the manager for proposals / votes",
    "methods": {
      "balanceOf(address)": {
        "details": "returns the balance of an account"
      },
      "castVote(uint256,uint256,bool)": {
        "details": "casts a vote.",
        "params": {
          "_ProposalID": "the proposal id",
          "_vote": "true for yes, false for no",
          "numTokens": "number of voice credits"
        }
      },
      "countVotes(uint256)": {
        "details": "counts the votes for a proposal. Returns (yeays, nays)",
        "params": {
          "_ProposalID": "the proposal id"
        }
      },
      "createProposal(string,string,uint256)": {
        "details": "Creates a new proposal.",
        "params": {
          "_description": "the text of the proposal",
          "_name": "the name of the proposal",
          "_voteExpirationTime": "expiration time in minutes"
        }
      },
      "getProposalExpirationTime(uint256)": {
        "details": "returns a proposal expiration time",
        "params": {
          "_ProposalID": "the proposal id"
        }
      },
      "getProposalStatus(uint256)": {
        "details": "returns the status of a proposal",
        "params": {
          "_ProposalID": "the proposal id"
        }
      },
      "isOwner()": {
        "details": "Returns true if the caller is the current owner."
      },
      "mint(address,uint256)": {
        "details": "minting more tokens for an account"
      },
      "owner()": {
        "details": "Returns the address of the current owner."
      },
      "renounceOwnership()": {
        "details": "Leaves the contract without owner. It will not be possible to call `onlyOwner` functions anymore. Can only be called by the current owner.     * > Note: Renouncing ownership will leave the contract without an owner, thereby removing any functionality that is only available to the owner."
      },
      "setCreateCost(uint256)": {
        "details": "set create cost."
      },
      "setProposalToEnded(uint256)": {
        "details": "sets a proposal to ENDED.",
        "params": {
          "_ProposalID": "the proposal id"
        }
      },
      "setProposalToTally(uint256)": {
        "details": "sets a proposal to TALLY.",
        "params": {
          "_ProposalID": "the proposal id"
        }
      },
      "transferOwnership(address)": {
        "details": "Transfers ownership of the contract to a new account (`newOwner`). Can only be called by the current owner."
      }
    },
    "title": "QVVoting"
  },
  "userdoc": {
    "methods": {}
  }
}